:03000000020800F3
:0C080000787FE4F6D8FD758112020847ED
:0E0A1300020C0000020E0000040800000000AB
:10097800120A30E4F5A0AF8CEFAD8AF50EEDF50F55
:10098800C3950DFFE50E950CFE12088C850E0C859F
:040998000F0D80E2DD
:10088C00EF64014E7034050BE50B640A7020F50B18
:10089C00050AE50A640A7016F50A0509E509640AF1
:1008AC00700CF5090508E508640A7002F5081209D0
:0B08BC004E1208F51209221208C72294
:10094E00E4F510F511AF0BFBFAADA05305FCEF5417
:10095E000125E04DFEF5A043A001EFC313FF0BBB35
:09096E0000010AEB64044A70E088
:01097700225D
:1008F500E4F510F511AF0AFBFAADA05305F3EF547B
:100905000133333354F84DFEF5A043A004EFC31370
:0C091500FF0BBB00010AEB64044A70DD1C
:0109210022B3
:10092200E4F510F511AF09FBFAADA05305CFEF5472
:1009320001C43354E04DFEF5A043A010EFC313FFF2
:0B0942000BBB00010AEB64044A70DEEE
:01094D002287
:1008C700E4F510F511AF08FBFAADA053053FEF545F
:1008D70001C433333354804DFEF5A043A040EFC32A
:0D08E70013FF0BBB00010AEB64044A70DC38
:0108F40022E1
:1009BF007F17EFD394007480948040127E98EED30B
:0E09CF0094007480948040031E80F31F80E427
:0109DD0022F7
:0E0A2200759850438920758DF3D28ED299229B
:1009DE001209FAFFFD3395E04D6010C2998F9930E0
:0C09EE0099FD740129F9E43AFA80E52231
:060A3000758905D28C223D
:03001B0002099C3B
:10099C00C0E0C0D075D000C007E5A025E0F5A0AF41
:1009AC00A0EF7002F5A0758DFF758BF5D007D0D038
:0309BC00D0E03256
:10080C00020978E493A3F8E493A34003F68001F281
:10081C0008DFF48029E493A3F85407240CC8C333ED
:10082C00C4540F4420C8834004F456800146F6DFBC
:10083C00E4800B0102040810204080900A13E47E2F
:10084C00019360BCA3FF543F30E509541FFEE493B1
:10085C00A360010ECF54C025E060A840B8E493A378
:10086C00FAE493A3F8E493A3C8C582C8CAC583CAA3
:10087C00F0A3C8C582C8CAC583CADFE9DEE780BE5B
:010A210000D4
:1009FA00BB010689828A83E0225002E722BBFE02FB
:090A0A00E32289828A83E493222D
:00000001FF
